:020000040000fa
:10000000f01f00202d2f0000633500000d3600008a
:1000100000000000000000000000000000000000e0
:100020000000000000000000000000008b30000015
:1000300000000000000000008b3000008b3000004a
:100040008b3000008b3000008b300000e52e00006c
:100050008b3000008b3000008b300000b127000097
:100060008b300000891900008b3000008b300000bd
:100070008b3000008b3000008b3000008b30000094
:100080008b3000008b3000008b3000008b30000084
:100090008b3000008b3000008b3000008b30000074
:0c00a0008b3000008b3000008b30000023
:020000040000fa
:1000ac00f8b5c046f8bc08bc9e467047c52e00008b
:1000bc00f8b5c046f8bc08bc9e4670479d2e0000a3
:020000040000fa
:1000cc00f0b5574645464e46de46e0b50f037f0a6f
:1000dc00450f3d43ac465d004e00cc0f690d8a4682
:1000ec001f03ca49550f83b0c0007f0ad200760d9a
:1000fc008046db0f2f4301928a4500d1c0e0554664
:10010c00751ba9460125ab465d466b409b469c4240
:10011c0000d190e04d46002d00dcbbe05346002b97
:10012c0000d1d4e08e4200d19fe280231b041f43f8
:10013c004b46382b00dd64e11f2b00dd16e24946ef
:10014c0020233d005b1a11009a409d40531e9a419a
:10015c004b46a8464d46df406346e9404546db1b0f
:10016c009c460d431543451ba842804163464142c2
:10017c00591a0b0200d41ce149024b0a984643461b
:10018c00002b00d130e1404602f0baff0300083bdf
:10019c00202229004746d21a9f40d1409d400f4350
:1001ac009e4200dd1ce19e1b731c1f2b00ddb2e187
:1001bc0020222800d21a390095409140d8406a1e5e
:1001cc00954101430d4339000026d9406b0709d0f6
:1001dc000f232b40042b05d02b1dab42ad416d42a0
:1001ec0049191d000b0200d4e6e0721c874b560522
:1001fc00760d9a4200d1eee0854fed080f4078075e
:10020c00284382467a02120b00211203130b0a0dab
:10021c0012051a437f4b3605134033435b00e4074a
:10022c005b0823435046190003b03cbc90469946ea
:10023c00a246ab46f0bd4d46002d5bdd5346002b70
:10024c0000d19ae08e4200d109e180231b041f43a8
:10025c004b46382b00dd6ee11f2b00dca5e139008d
:10026c00203bd9404b46202b05d040234d465b1bf1
:10027c009f403a430192019d6f1ebd410d435ee1cb
:10028c0065493d0089461543b144002d2dd09b4650
:10029c009c422fd0494600294ad1604d711c2942fd
:1002ac0000d0bde03d00614615430143aa46002e37
:1002bc0000d0f8e1002900d1bee1002d00d0fde115
:1002cc006346c0085a0702439246d9087de03b00ba
:1002dc00134300d1bbe04b46013b002b00d1bbe1eb
:1002ec00894500d1bbe0994622e701256b409b462e
:1002fc009c42cfd14946002900d0b8e0711c8a46f7
:10030c00554646490d4245d161460143002e00d069
:10031c0070e1002900d10de23b00134300d00fe245
:10032c006346c0085b07184363468246d9084ce015
:10033c005146891b89465c46002e00d0c4e06346ba
:10034c00034300d150e10b00013b002b00d1e8e14d
:10035c002e4d9946a94200d0bfe0d2087b071a4324
:10036c009246f90853460b4300d13be2802212031c
:10037c000a431203120b254e46e73b00134300d1f0
:10038c007ae14b46013b002b00d121e1894566d037
:10039c0099465de71d4b9a4500d1dee182188242f9
:1003ac0089415646674449427918cd07520815438e
:1003bc0049086b0700d00be74b07ed081d43aa4615
:1003cc00b146c908114b9945ccd04b460a035e0582
:1003dc00120b760d18e71600002300229a4613e73d
:1003ec000b49f61a3940f1e6280002f089fe0300a9
:1003fc0018331f2b00dccbe6083885402f00002576
:10040c00cee63a4315006a1e9541ace6ff070000a4
:10041c00ffff7fffffff0f8001f8fffffe070000cb
:10042c006146851acb1ba84289414942884619006e
:10043c004346c91a0b0088461b0200d529e10b0064
:10044c002b439a4600d09ae600210024bde7634670
:10045c00c0085b07184363468246d908b2e7634677
:10046c00c0085b07184363468246d9087ae75346af
:10047c009b1b9946002e00d189e0d84b9a4500d1a0
:10048c00e4e0802361461b0419438c464b46382b11
:10049c0000dd25e11f2b00dd6ae1494620234e4695
:1004ac005b1a6546010098409d40f140431e9841ff
:1004bc000d4305436046f0403f18ad189542894105
:1004cc004942c91956463fe0c44b9a4500d1bde09c
:1004dc00802361461b0419438c464b46382b00dda8
:1004ec00d1e01f2b00dd01e1494620234e465b1a6b
:1004fc006546010098409d40f140431e98410d43d4
:10050c0005436046f0403f1a551baa4289414942b7
:10051c00791a56462de63a001f3ef2401600202b63
:10052c0003d04022d31a9f403d436b1e9d410021b6
:10053c00354300263de73a4315006a1e95412d18b8
:10054c0085428041414261440b0200d431e7a34b08
:10055c0001369e4200d13fe70122a14f6b08394082
:10056c0015401d43cb071d4349082fe63900203b9e
:10057c00d9404b46202b05d040234d465b1b9f405a
:10058c003a430192019d6f1ebd410d43ebe563465d
:10059c00034329d04b46013b002b00d116e18f4d74
:1005ac00a94500d1d9e6994670e7494620233d007c
:1005bc005b1a9d4011009a40a8464d46531e9a4125
:1005cc004b46e9404546df400d431543bc44b6e776
:1005dc0085188542894167444942791801260b02e6
:1005ec0000d4e6e60226b7e7d2087b071a43924608
:1005fc00f908e7e6002929d063463e005d07c008ec
:10060c00d90816432843002e00d188e080252d03fd
:10061c00294207d0fe082e4204d15c463100d20894
:10062c0078071043ca00410f1143c0004a07c008a5
:10063c0010438246c90895e6002d00d104e77807df
:10064c00d20810438246f9085c46bee67807d20809
:10065c0010438246f90885e6851a6346a842804114
:10066c00df1b4042391a012683e56346c0085a074e
:10067c0002439246d90875e66346c0085a070243fe
:10068c009246d9089ee6634603431d00681e8541c9
:10069c003ae7151a6346aa429241ff1a5242bb1a14
:1006ac0098465c466be5002932d1002d72d0790753
:1006bc00d2080a439246f9085c4653e66346851a0b
:1006cc00d91ba8429b415b42c91a0b024ad5151a89
:1006dc006346aa429241ff1a5242b91a5c4675e52a
:1006ec00634603431d00681e8541e6e66646203bd3
:1006fc00de404b46202b06d0494640235b1a614610
:10070c009940084380464546691e8d413543fbe6ba
:10071c006346c0085e07d908002d3fd1304382469e
:10072c0020e6151a6346aa429241ff1a5242b91aa0
:10073c0001261ee5d2087b071a439246f90844e6c7
:10074c008518854289416744494279180b0200d4c7
:10075c002fe6234b012619402be600235646002298
:10076c009a4651e52b000b439a4600d16ce620e6e5
:10077c006646203bde404b46202b06d049464023a4
:10078c005b1a61469940084380464546691e8d4177
:10079c00354392e6802100240903e7e506438020d7
:1007ac000003014208d0fd08054205d1d2087f079d
:1007bc003a4316005c462900ca00710f1143f6003b
:1007cc004a07f60832439246c908cbe5851895428c
:1007dc00924167445142791800e7c046ff07000078
:1007ec00ffff7fff0023024e9a461a000ce5c0461d
:1007fc00ff070000f8b54746ce460e034d00760abb
:10080c00cc0f410f31438946190380b5490a570f64
:10081c005e000f436d0dc000760ddb0fb846d200a5
:10082c009c4200d1a3e0af1b002f00dc83e0002e24
:10083c0000d1c1e0c94b9d4200d188e180234146e3
:10084c001b0419438846382f00dd5de11f2f00dda6
:10085c0007e2202311004646db1b9e40f9409a40dc
:10086c000e434146531e9a41f9404b465b1a99463a
:10087c003243871ab84280414b464142591a0b0207
:10088c0000d4d7e049024e0a002e00d12fe13000ef
:10089c0002f036fc0300083b20223900d21a9e409d
:1008ac00d1409f400e439d4200dd1ce15d1b6b1c43
:1008bc001f2b00ddaae12021c91a3d0030008f401a
:1008cc008840dd40791e8f4131002843d9400025f6
:1008dc0007437b0709d00f233b40042b05d03b1d5e
:1008ec00bb42bf417f42c9191f000b0200d4a4e0d8
:1008fc006a1c9a4b55056d0d9a4200d1aae0984a94
:10090c00ff080a405007384384465202120b00215c
:10091c001203130b0a0d12051a43924b2d051340ab
:10092c002b435b00e4075b082343604619000cbcb7
:10093c0090469946f8bd002f4cd18b4e691c314224
:10094c0000d0e7e04646494616430143b446002d25
:10095c0000d00ee2002900d1cfe1002e00d010e231
:10096c004b46c0085f070743bc46d9086de0ab1b7c
:10097c00002b00dc9ee0002e3ed078498d4200d149
:10098c00e5e080213e0009040e43b046382b00dd23
:10099c004be11f2b00dc81e1190046462039ce408b
:1009ac00202b04d04021cb1a414699400a43170012
:1009bc007a1e974137433de14346134300d1bde0d6
:1009cc007b1e002b00d1b2e164498f4200d1a7e11c
:1009dc001f0038e7771b002d00d0efe0494601439c
:1009ec0000d177e1791e002900d119e25b4ca742b6
:1009fc0000d14be20f00eae03900114300d1a0e135
:100a0c00591e002900d158e1544eb34200d187e160
:100a1c000b00bbe7514b9e4200d132e2821882425e
:100a2c00804149463500414440420918cf075208dd
:100a3c00174349087b0700d04de74807ff080743d9
:100a4c00bc46c908454b9d4229d00a036d05120bc3
:100a5c006d0d5ce71500002300229c4657e74b46c2
:100a6c005f07d9084346c00813433843002b00d115
:100a7c00f6e180231b03194208d04546ed081d42c0
:100a8c0004d143462900d20858071043ca00430f2b
:100a9c001a43c0005707c0080743bc46d108634639
:100aac000b4300d112e2802212030a431203120bf1
:100abc002a4d2ce7002b59d12b4b6e1c1e42a9d171
:100acc004b460343002d00d00de1002b00d1b2e1c9
:100adc003b00134300d0b5e14b46c0085f073843d9
:100aec008446d908b1e71e49ed1a3140f1e63800c9
:100afc0002f006fb030018331f2b00dccce63e0093
:100b0c00083886400027cee6434613431a00571e8a
:100b1c00ba41aee649464646871a8e1bb842894111
:100b2c004942761a310200d519e13b0033439c4609
:100b3c0000d0a9e600210025002486e74b46c0081a
:100b4c005b0718434b468446d9083d007ae74b4671
:100b5c00c0085f070743bc46d908a0e7ff070000a1
:100b6c00ffff7fffffff0f80fe070000731b002db0
:100b7c0000d185e0d8498e4200d173e180214d46e9
:100b8c0009040d43a946382b00dd0ee11f2b00ddb7
:100b9c0084e12021c91a05004f4688408f40411e30
:100bac0088414946dd40d9402f4307438844bf184c
:100bbc009742924151424144350040e0c6498e4231
:100bcc0000d1a5e080214c4609040c43a146382fe6
:100bdc0000ddbee01f2f00ddede020210500c91b6c
:100bec004c4688408c40fd40411e884149462c4370
:100bfc002043f9404446611a8846171aba4292417a
:100c0c0041465242891a1c00350038e630001f3d1f
:100c1c00e840202b03d04021cb1a9e4037437b1e4b
:100c2c009f4100210743002504e7434613431f005f
:100c3c007a1e97413f1887428041414249440b023a
:100c4c0000d4f7e6a44b01359d4200d103e7a34a3b
:100c5c007b080a4001210f401f43d3071f43510853
:100c6c0037e63b004646203bde40202f04d0402395
:100c7c004146db1b99400a43571eba413243f8e503
:100c8c004946014300d1f4e0591e002900d115e179
:100c9c00914dab4200d1e5e00b0074e72021c91a5d
:100cac00160047468a408f40511e8a414146de401d
:100cbc00d940374317438944bce7871849468742d4
:100ccc009b4141445b42c91801250b0200d4b1e69b
:100cdc000225bce74146d208480702439446c9089e
:100cec001c003d00aee6002b00d0b8e63b00d2085d
:100cfc007f071743bc46d908d1e6002e00d18ce003
:100d0c004146d2084f073a439446c9081c009ce65a
:100d1c004146d2084f073a439446c9081c00bee628
:100d2c004b46c0085f0738438446d908b7e6871a94
:100d3c004b464246b8428041991a4042091a012555
:100d4c009de54a46c008570738438446d1081d0024
:100d5c0078e6494601430800471eb8414de7171a8b
:100d6c0041464846ba42b641091a76428e1b1c00cf
:100d7c008ae500292ed1002ecad180210024090336
:100d8c0091e649464646871a8e1bb842894149422c
:100d9c00711a0e023cd5171a41464846ba42924186
:100dac00091a5242891a1c0093e54b4603431f0053
:100dbc00781e8741fbe639004c462039cc40202f69
:100dcc0004d040214d46c91b8d402843411e88410b
:100ddc00204312e74946c0084d072843c908002e96
:100dec003ed080252d03294208d04646f7082f42d5
:100dfc0004d11c003900d20870071043ca00430ffd
:100e0c001a43c000c008570738438446d10846e649
:100e1c003b000b439c4600d00ce60021002414e65a
:100e2c00171a41464846ba429241091a5242891a47
:100e3c001c00012523e53b00d2087f071743bc4665
:100e4c00d90802e68718494687429b4141445b42d8
:100e5c00c9180b0200d4ede5204b01251940e9e53a
:100e6c0084461ce63b00d2087f073a439446d908d7
:100e7c0015e63900d2087f073a439446c9081d008d
:100e8c00e0e50023350000229c4640e54146d208af
:100e9c004f071743bc46c9081c0000e619004d4615
:100eac002039cd40202b04d04021cb1a4946994003
:100ebc0008430700781e87412f4378e68718494678
:100ecc0097429b4141445b42c918fde60023024d09
:100edc009c461a001be5c046ff070000ffff7fff82
:100eec00f0b557464e464546de46e0b58146050010
:100efc000c03480085b092461f00240b400dce0f0a
:100f0c00002800d1ade0864b984200d1c8e06b0fb1
:100f1c00e4001c4380231b0423439846814bed00c3
:100f2c009b4600239946834400933c037b00504628
:100f3c00240b5b0dff0f002b00d177e0784a934216
:100f4c0018d07849420f8c46e4001443594680224d
:100f5c0063441204cb1a14439b46c2000020330096
:100f6c007b409a464b460f2b00d9ede06e499b0017
:100f7c00cb589f466d4b52469c462243e344002a75
:100f8c0000d0aee0494602231943894600240220d2
:100f9c00e5e73e00a04615000090009b022b00d117
:100fac000be2032b00d19de1012b1fd0b246604f09
:100fbc005f44002f00dcdae16b0700d00ee2ed0895
:100fcc004346db0106d542465a4b80271a409046d1
:100fdc00ff005f44584b9f4224dc43465b071d4394
:100fec0043467f055c02240b7b0d03e0b2460023d5
:100ffc000024002500212403270b0c0d24053c4361
:10100c001f054e4b28001c40534627437f00db072f
:10101c007f081f43390005b03cbc90469946a24658
:10102c00ab46f0bd3e4b00240025e3e7524622437d
:10103c0050d0002c00d18ae1200002f061f80200af
:10104c000b3a1d2301009b1a52460839da408c409a
:10105c00144352468a403a4b58449b4683440020e2
:10106c007de74b46234398462cd0002c00d15ee103
:10107c00200002f045f802000b3a1d239b1a4a4649
:10108c000100da4008398c4013004d462343984642
:10109c008d402c4b1b1a9b4600239946009344e72a
:1010ac004b462343984606d108239946063b002518
:1010bc008346009339e70c239946093ba0468346a7
:1010cc00009332e70423994600239b460133002505
:1010dc0000932ae74946012319438946002401203d
:1010ec003de74a4603231a4391460320524636e70e
:1010fc00002380249a4624030025094b7ae7802399
:10110c0041461b03194200d1ece01c4200d0e9e03f
:10111c001c432403240bba461500014b6ae7c04656
:10112c00ff07000001fcffffcc30000001f8ffffbf
:10113c00ff030000fffffffefe070000ffff0f8014
:10114c00f30300000dfcffff444500d2d6e000d1b4
:10115c00d1e001235b429c462e0040460025e3442f
:10116c00130e24021c431302994623041b0c210c5e
:10117c000093019100f066ff009a0b044243310c7e
:10118c00070019438a4207d90919013f8c4203d839
:10119c008a4201d9871e0919881a019900f052ff59
:1011ac0009048c4631046646009a090c424303003c
:1011bc0031438a4204d90919013b8c4200d807e11a
:1011cc003f041f43891a4b464a461e0c1204380c26
:1011dc000296160c3200039646433b04b846370081
:1011ec00029e1b0c5a4373437043db19160cf61802
:1011fc00b74203d980235b029c466044330c120433
:10120c003604120c1818b618814200d280e07cd03b
:10121c00ae1b091ab54280419b4f4042081a5f44ed
:10122c00844200d1fde0019900f00cff009a0b0400
:10123c004243310c050019438a4207d90919013d73
:10124c008c4203d88a4201d9851e0919881a019942
:10125c0000f0f8fe09048c4631046646009a090c2d
:10126c004243030031438a4207d90919013b8c429e
:10127c0003d88a4201d9831e0919039e2d041d43ec
:10128c003300891a2a04120c53430093029b280c36
:10129c0046435a435843009b92191b0c9c4662448c
:1012ac00964203d980235b029c466044009b160c3b
:1012bc001b0412041b0c3018d218814206d302d026
:1012cc0001231d4375e6002a00d172e661186b1ede
:1012dc00a14200d290e0814200d2a8e000d1cfe040
:1012ec001d00ede78024434624031c432403240bf8
:1012fc00b246664b7ee6aa4200d92ae74346de0791
:10130c0058086b081e43ed072ae7b54200d37fe768
:10131c0043464d445a1e4d459b415b421b19c9180f
:10132c008c424fd2884271d86ed0904670e74846b6
:10133c0001f0e6fe03001a00153220301c2a00dcf6
:10134c009be64a46083b9a4000259046a1e601f0f0
:10135c00d7fe03001a00153220301c2a00dc70e680
:10136c005446083b00229c4075e601256d42012144
:10137c00c91b382900dd3ae61f2962dc2a004346e6
:10138c004348ca4058448340854013436a1e9541e4
:10139c0044462b43cc405a0709d00f221a40042a4a
:1013ac0005d01a1d9a429b415b42e418130022029d
:1013bc005fd50123002400251ce6b246334b0024e4
:1013cc00002517e68c42b0d1a945abd990461fe752
:1013dc008a4200d8f4e6831e0919f1e60f232b404c
:1013ec00042b00d1ebe505235b42ab429b4104355a
:1013fc005b42ed089844e3e51d00814200d05fe7b5
:10140c00914500d05ce7d4e5ae428ed902234d4421
:10141c005b429c464d459b415b421b19e044c918fd
:10142c00f6e6002fa1dd012300259844c8e54b46c4
:10143c005e004e459b415b421c19023d0919b146a9
:10144c00dbe71f2243465242d71bfb40202904d026
:10145c00444610485844844025436a1e95412b430a
:10146c00072500241d4007d00f2200241a40042a0f
:10147c0097d165076402240bdb081d430023b9e5f3
:10148c009145d4d31d00bbe7ff030000ff0700000c
:10149c001e0400003e040000f0b557464e4645467b
:1014ac00de46e0b50c030600480087b0924698462d
:1014bc00240b400dcf0f002800d178e07b4b9842d5
:1014cc0000d190e0730fe4001c438023784a1b0486
:1014dc001c439446030063440093002399469b46a7
:1014ec00f500434642461e03d20f5b005046360bb6
:1014fc005b0d904600d180e06c4a93421dd06c4944
:10150c00420f8c4600996344f6008c4616438022a9
:10151c009c44120463461643c200002000930099b9
:10152c00434601318c4649467b4001930f2900d933
:10153c00c6e0604b890059588f465c4952468c4630
:10154c00009b324363440093002a00d08de049464f
:10155c0002231943894600260220e0e74346019303
:10156c003400150083465b46022b64d0032b00d15c
:10157c00f1e1012b00d05ee10022002600250021c4
:10158c003603340b0e0d360526434b4c12053440f6
:10159c001443019b6400db0764081c4328002100f2
:1015ac0007b03cbc90469946a246ab46f0bd250020
:1015bc00354352d0002c00d176e1200001f0a0fd83
:1015cc0002000b3a1d2301009b1a3200350008392a
:1015dc008c40da408d401443384b1b1a0093002387
:1015ec0099469b467de7350025432fd10823994624
:1015fc00063b002400909b4673e7524632431ed0b4
:10160c00002e00d142e1300001f07afd02000b3acd
:10161c001d2301009b1a52460839da408e401643ae
:10162c0052468a40009b2549181a03008c46634495
:10163c000093002073e71d4a002600259fe74946ca
:10164c000123194389460026012068e70c2399469b
:10165c00093b350000909b4643e704239946002341
:10166c000093013300249b463be74a4603231a436d
:10167c0091460320524652e7019774e700238026d7
:10168c00019336030025094a79e780231b031c428a
:10169c0000d1f3e01e4200d0f0e01e434346360377
:1016ac001500360b0193014a69e7c046ff0700009d
:1016bc0001fcffff8c300000ffff0f800dfcffffd3
:1016cc002f0c2d042d0c2b00110c1204120c534357
:1016dc009846130028007b43994648434844834668
:1016ec0040460b00000c824658467b435044029304
:1016fc00814506d99a4680235b029946ca445346d3
:10170c000293030c9b4643461b0400041b0c984697
:10171c00030043440493330c99462b003604360cd7
:10172c007343984633007b439a464b465d435f4375
:10173c0043465544180c4019824503d980235b025b
:10174c009a465744050ceb19059343461d042d0c82
:10175c0000044019250c2404240c270057436a4329
:10176c0090462a003b0c9a464a43614341445144fb
:10177c008344884503d980235b02984642443f0446
:10178c000b0c3f0c0904c919270098464b467743ac
:10179c005c436e435d433b0c9946a4194c44424454
:1017ac000395a64204d980235b02984645440395d1
:1017bc00029b3f045b441e008342804123049846f5
:1017cc00059b3f0c4744984676188e428941474406
:1017dc0040423d18a846494293468a46c344da44df
:1017ec009f42bf4180458041039b934592418a456e
:1017fc0089419846534640427f420743240c52424b
:10180c0049420a433c19a418da0d049b75021d4386
:10181c00681e8541534644446402f60d1443354317
:10182c005a021543e30173d501216a080d40154393
:10183c00e207154364084b4a6244002a43dd6b07f8
:10184c0009d00f212940042905d0291da942ad41f9
:10185c006d4264190d00e30104d5434a1440802203
:10186c00d200624441498a4200dde4e66107ed089a
:10187c00640252050d43260b520d80e6802636037a
:10188c0026433603360b0197394a78e601f038fccb
:10189c0003001a00153220301c2a00dcb8e656462c
:1018ac00083b00229e40bde6300001f029fc0300fd
:1018bc001a00153220301c2a00dc83e63400083b69
:1018cc0000259c4088e60121891a382900dd53e661
:1018dc001f2920dc2748220060442e0085408240ce
:1018ec00ce40681e854132432a43cc40530709d071
:1018fc000f211140042905d0111d914292415242f1
:10190c00a4180a0023021fd501220026002536e662
:10191c00009b9c468fe71f204042821a2000d0403b
:10192c00202903d0144a6244944025436a1e9541f1
:10193c002a000725024315400026002d07d00f2151
:10194c00002411400429d7d165076402260bd20864
:10195c001543002213e68026360326433603360b46
:10196c00034a0ce6ff030000fffffffefe0700002a
:0c197c00ff0700001e0400003e040000f5
:020000040000fa
:1019880010b5684b9b7d002b17d0664b5b8b9b0774
:1019980014d5654b2022ff2199540132fd39995401
:1019a800614a2023d35c5bb2013300d18ae05e4aee
:1019b8002023d35c062b00d19ce010bd594b5b8bd8
:1019c800db0707d5584b2022ff2199540132fd39f6
:1019d8009954e5e7534b5b8b5b0707d5524b2022a5
:1019e800ff2199540132fe399954d9e74e4a2023f0
:1019f800d35c5bb2032b43d0042b0fd0022bcfd187
:101a08001369002b04d09088002101f079f9c7e709
:101a1800454b9888012101f073f9c1e7424a93695f
:101a2800126993420bd0404a9168581c9061c95c76
:101a38003c4a2823d154d369002bfcd1b0e73a4b58
:101a48005b69002b0ed0384b9b885b000122134347
:101a5800344a5362d369002bfcd1334a2033032123
:101a6800d1549de72f4a5168c0239b020b43536012
:101a7800d369002bfcd12c4a20330621d1548fe79f
:101a8800294a5369013bd2699a420dd0254ad36944
:101a9800002bfcd1244bd968da69501cd861214845
:101aa8002823c35c8b547be71e4a5168e023db0282
:101ab8000b435360d369002bfcd11b4a203306210a
:101ac800d154e3e720230021d154164a5168c0239a
:101ad8009b020b435360d369002bfcd1114b83222b
:101ae8001a76114b5b6a002b00d166e70e4a906aa2
:101af800984762e71300002220215a5401315a54b2
:101b0800084b83321a761900533a4b8b1340102b2b
:101b1800fbd1054b5b6a002b00d14ee7024a906a65
:0c1b280098474ae7000400422401002016
:020000040000fa
:101b3400564bf0b502000500180085b00c000840b3
:101b440098420fd10b002800fff7aafc02000b00fb
:101b540028002100fef752fe05000c002800210099
:101b640005b0f0bd002910dc4b005b082b43f5d019
:101b74000023994200d180e00b002800fef7a4fa6c
:101b840002000b00fff7b0f9e6e70b1575d04048eb
:101b940009031b188020090b40030143d80703d510
:101ba400d00f49000918520000245b104900039328
:101bb400d30fcb1880211625200052008903461824
:101bc4009e4202dc70189b1b6418d60f5b00013d1b
:101bd400f31852004908002df1d12026802729004e
:101be40001963f067e19b446834202dc14d1964224
:101bf40012d865466646ed190290002e03daee43cc
:101c0400f60f861902961b1a6245804140421b1a40
:101c14006046121a0298c919d60f5b00f318019e88
:101c24005200013e7f080196002edbd1134303d0fe
:101c34004b1c27d131000134164b6010c0184908e1
:101c4400e30702d580231b061943039b0d001c05e3
:101c540023181c0082e7d10a153852050029fad04e
:101c64008024640321420ad020241600e41ae640aa
:101c74005d1e9a403143431b89e70020eee749008b
:101c84000133efe7012301319943d5e70000f07fe9
:081c940001fcffff0000e03f2e
:020000040000fa
:101c9c00f0b51e004f4b85b01d6804000f0000927c
:101cac00002d05d0ab69002b02d1280000f010ffed
:101cbc00494b9c424fd16c68009b022b05d0012be9
:101ccc0000d983e0002e00da80e02100280000f02b
:101cdc00e9ff616b002908d023004433994202d0fc
:101cec00280000f04dfc002363630023a3616360b4
:101cfc00a3891b0603d52169280000f041fca389a8
:101d0c00364a1340a381009b022b59d003ab02aa85
:101d1c002100280001f06ef8a3890343a381002e53
:101d2c0023d1029e300001f003fc071e43d1029b1d
:101d3c000193b34239d1012040420223a2891343bb
:101d4c00a3810023a3602300473323602361012375
:101d5c00636105b0f0bd224b9c4201d1ac68abe78e
:101d6c00204b9c42a8d1ec68a6e7002fdad0ab69d7
:101d7c00002b02d1280000f0abfe009b012b03d1fd
:101d8c00a389009a1a43a2810820a389276027619e
:101d9c006661184018d0012018400023984211d0d9
:101dac007642a360a6611800d3e7019801f0c0fb4e
:101dbc00019e071ebfd08023a2891343a381d6e7bf
:101dcc000020bae7a660c4e7a060c2e70120404249
:101ddc00bfe7c04600020020700100205cf3ffff4b
:081dec009001002050010020cd
:020000040000fa
:101df400b00100201c00000000000000d001002001
:101e04001000000000000000e001002010000000ad
:101e140000000000f001002010000000000000009d
:101e240004000020c0000000000000002401002085
:101e34002c0000000000000010020020010000003f
:101e44000100000001000000cc010020040000009b
:101e54000000000011020020010000000100000049
:101e6400ff00000000020020040000000100000048
:101e7400c4000020c4000020600000000100000035
:101e8400000000007001002090010020500100209b
:101e9400000000000000000000000000000000003e
:101ea400000000000000000000000000000000002e
:101eb400000000000000000000000000000000001e
:101ec400000000000000000000000000000000000e
:101ed40000000000000000000000000000000000fe
:101ee40050010020200000000000000070010020cc
:101ef40020000000000000009001002020000000ed
:101f040000000000040200200400000000000000a3
:101f1400080200200400000000000000000000206f
:101f240004000000000000000c0200200400000077
:101f34000000000000000000000000002222222215
:020000040000fa
:101f4400002243088b4274d303098b425fd3030af4
:101f54008b4244d3030b8b4228d3030c8b420dd307
:101f6400ff22090212ba030c8b4202d31212090295
:101f740065d0030b8b4219d300e0090ac30b8b42d3
:101f840001d3cb03c01a5241830b8b4201d38b0381
:101f9400c01a5241430b8b4201d34b03c01a524126
:101fa400030b8b4201d30b03c01a5241c30a8b4269
:101fb40001d3cb02c01a5241830a8b4201d38b0254
:101fc400c01a5241430a8b4201d34b02c01a5241f8
:101fd400030a8b4201d30b02c01a5241cdd2c3096a
:101fe4008b4201d3cb01c01a524183098b4201d3e6
:101ff4008b01c01a524143098b4201d34b01c01ad1
:10200400524103098b4201d30b01c01a5241c30848
:102014008b4201d3cb00c01a524183088b4201d3b7
:102024008b00c01a524143088b4201d34b00c01aa3
:102034005241411a00d20146524110467047ffe70f
:1020440001b5002001f0dafa02bdc0460029f7d03c
:0420540076e7704774
:020000040000fa
:10205800f7b58a8905000c0013075dd44b68002b7f
:1020680004dc0b6c002b01dc0020febde76a002fae
:10207800fad000232e682b6080235b011a4034d0ed
:10208800606da3895b0706d56368c01a636b002b74
:1020980001d0236cc01a0200216a00232800e76ad5
:1020a800b847a189431c06d12b681d2b31d82c4a6f
:1020b800da40d3072dd50023636023692360cb045e
:1020c80005d5431c02d12b68002b00d16065616bdc
:1020d8002e600029c8d023004433994202d028003a
:1020e80000f050fa00206063bfe70123216a28004e
:1020f800b847431cc5d12b68002bc2d01d2b01d07b
:10210800162b01d12e60afe74023a2891343a38188
:10211800abe740230b43fae70f69002fa4d00b6805
:102128000f60db1b01930023920700d14b69a3606a
:10213800019b002b00dc97e7019b3a00216a2800ed
:10214800a66ab047002806dc40230120a289404245
:102158001343a38189e7019b3f181b1a0193e7e703
:042168000100402012
:020000040000fa
:10216c00f0b587b0002000f06dfe00223849002049
:10217c0001f0f2f900f0e0fc05a9364b1b8a0b804c
:10218c000222692001f082f801f00af90028fbd143
:10219c0000f0defd12e08021490582200a00c00516
:1021ac0001f0f8f900232c4c029303940ae08021ef
:1021bc00822000224905c00501f0ecf9002300241f
:1021cc000293039400f0e4fb04000d0000f015fcf6
:1021dc0006000f0000f046fc0090019122002b003d
:1021ec0020002900fff758f904000d0032003b00d5
:1021fc0030003900fff750f902000b0020002900d5
:10220c00fef7f8fa04000d000098019902000b008b
:10221c00fff742f902000b0020002900fef7eafa52
:10222c0000f0bafc0d4a0e4b00f01afb0028b2d19c
:10223c000022094b02980399fef7dcfa02900391f5
:10224c000022084b00f020fb0028bbd0afe7c046b3
:10225c0015350000283500000000f03f7b14ae4718
:08226c00e17ab43f00709740d5
:020000040000fa
:10227400f0b54e4645465746de461c03e0b5240bf2
:10228400324e0f034d00a1465c0084463f0b6d0d9a
:10229400c90f9046640ddb0fb5422ad0b44219d061
:1022a400002d2bd13843834646424641002c02d1af
:1022b4004846024328d0002e16d1994229d0022341
:1022c40001390b40013b18003cbc90469946a2469c
:1022d400ab46f0bd4e4632432fd1002dedd13843ed
:1022e40046424641002ee8d0002becd101235b424c
:1022f400e9e73e00064320d1ac42ebd0002cdcd110
:1023040048460243d9d1dae75a460023002adad0f4
:10231400d5e7a5420adce7db4f45d0d810d000232f
:102324004f45d0d20029e1d00b00cce758424341bd
:10233400584202230340013bc5e702235b42c2e744
:10234400c445bcd80023c445bdd2ebe7ff07000059
:10235400f0b54e4645465746de461c03e0b5240b11
:10236400314e0f034d00a1465c0084463f0b6d0dba
:10237400c90f9046640ddb0fb54211d0b44214d09e
:10238400002d30d13843834646424641002c14d1b7
:102394004846024311d15a460023002a17d010e0c0
:1023a4003e00064312d1ac421dd14e4632430dd1fc
:1023b400002d04d1384346424641002e0ed19942a5
:1023c40017d0022301390b40013b00e0022318001f
:1023d4003cbc90469946a246ab46f0bd002bf6d1d4
:1023e40001235b42f3e7002ce9d148460243e6d1de
:1023f400e7e7a54206dd5842434158420223034021
:10240400013be4e7a542e9db4f45dad806d00023d7
:102414004f45dcd20029e3d00b00d8e7c445d0d81f
:0c2424000023c445d3d2f5e7ff070000f9
:020000040000fa
:10243000f8b50323cd1c9d43083506000c2d1fd293
:102440000c25a9421ed8300001f0e2f825490a689f
:102450001400002c1ad1244f3b68002b04d121001a
:10246000300001f007f838602900300001f002f870
:10247000431c2ad10c233000336001f0caf803e07a
:10248000002ddeda0c2333600020f8bd23685b1bcf
:1024900018d40b2b03d92360e418256003e063688c
:1024a000a2420dd10b60300001f0b3f820000722ea
:1024b0000b30231d9043c21ae7d01b1aa350e4e748
:1024c0005360f0e722006468c3e70323c41c9c4305
:1024d000a042e2d0211a300000f0ccff431cdcd136
:0c24e000c8e7c0460402002008020020eb
:020000040000fa
:1024ec00214b5a6852031b68db0c13439b029b0a5b
:1024fc001e4a93630f235375110004228b691a42f1
:10250c00fcd11a491022cb681a42fcd0184b00227d
:10251c009a611a61174b184a1a62190004224b6807
:10252c001a42fcd1134a88234021d1501000483163
:10253c00402243581a42fcd00e4acc234021d150a1
:10254c0010008c31402243581a42fcd0094ad02347
:10255c004021d15010009031402243581a42fcd0f7
:10256c00064b0622da6170472060800000100040a4
:10257c0000140040001c004006010100000800404f
:020000040000fa
:10258c0070b50500002910d00c1f2368002b00da51
:10259c00e418280001f036f81d4a1368002b05d109
:1025ac0063601460280001f02ef870bda34209d9b5
:1025bc00216860188342f3d118685b684118216068
:1025cc00eee713005a68002a01d0a242f9d9196823
:1025dc005818a0420bd1206809185818196082426b
:1025ec00e0d110685268411819605a60dae7a042cd
:1025fc0002d90c232b60d5e721686018824203d1e5
:10260c00106852684118216062605c60cae7c0467d
:04261c000402002094
:020000040000fa
:10262000f0b5c6461f4a204b00b50021934203d2a5
:10263000197001339342fbd10b231c4a9c46083b83
:1026400098461368546819000026214311d01700da
:1026500091680c3700290fd11a19002c03d01e7075
:1026600001339342fbd13a001368546819002143a7
:10267000edd104bc9046f0bd6146c91a1d19511830
:10268000002c05d05a1c505c187013009542f9d1eb
:10269000434623405a1e9341a4081c19a4003f1925
:1026a0003a00e1e70400002000000020f41d0000d3
:020000040000fa
:1026b00010b51d4a137801210b431370110001223c
:1026c0004b681a42fcd118490023cb610b6240339e
:1026d0000b61164b10221a721a7520201a540c30f6
:1026e0001a540c301a540c301a540c3006241c5452
:1026f0000c301a540c301a540c301a540c301a5432
:102700000c301a540c301a540c301a540c301a5421
:102710000c301a540b78022213430b7002224b68c0
:102720001a42fcd110bdc046002800400400002021
:020000040000fa
:10273000f0b54e464546de4657461c03e0b5240b31
:102740001a4e0f034d00a1465c00db0f84463f0b81
:102750006d0dc90f9046640d9b46b5421ad0b44228
:1027600010d00126a5420ed14f450cd10126c445fb
:1027700009d1594518d0002d05d138430600701ee7
:10278000864100e0012630003cbc90469946a246b6
:10279000ab46f0bd3b0001260343f4d1ac42f2d17d
:1027a0004b461343efd1e1e70026ece7ff070000bb
:020000040000fa
:1027b00030b583b0002301931a4a118c0f330b40bc
:1027c0003f21545ce4b253540f31525cd2b20192b7
:1027d000019a0220920708d512494e228854190105
:1027e000114a5218002111730138019ad20709d5f4
:1027f0000c494e220120885419010b4a521800211d
:10280000117301301901084a52185568002d03d080
:10281000054a53189968a847024a3f23d45403b085
:0c28200030bdc04600600041f001002007
:020000040000fa
:10282c008446101c62468c46191c634600e0c04668
:10283c001fb5fff789fd002801d40021c8421fbd38
:10284c0010b5fff76fff4042013010bd10b5fff718
:10285c007bfd002801db002010bd012010bdc0460f
:10286c0010b5fff771fd002801dd002010bd01201f
:10287c0010bdc04610b5fff7f7fc002801dc0020a6
:10288c0010bd012010bdc04610b5fff7edfc0028af
:0c289c0001da002010bd012010bdc04674
:020000040000fa
:1028a800f8b51c4b07001e68b369002b02d1300035
:1028b80000f010f94836b4687368013b04d53368f2
:1028c800002b1cd03668f6e70c22a55e002d14d12b
:1028d8002000114b256625606560a560e3602561d1
:1028e8006561a56108222900583000f047fe65633c
:1028f800a563a564e5642000f8bd6434dde7042120
:10290800380000f00dfd041e3060dbd10c233b6065
:0c291800f1e7c046043600000100ffff9c
:020000040000fa
:1029240070b5002818d0c317c5185d40c40f28001f
:1029340000f0eafb164b1b1a5b055e0d0a2820dc2f
:1029440003002a0015339a4013000b22101a2a00a0
:10295400c2401203120b03e00024002600220023cd
:10296400002112031800130b0a0d0a4d12051a4315
:102974002a40330513435b00e4075b082343190033
:1029840070bd2a000b3882401203120b0023e7e7c4
:082994001e040000ffff0f808c
:020000040000fa
:10299c0000b585b00f21694420230b70123b6b44aa
:1029ac001f221a70012300930c336b441e3a6920ca
:1029bc0000f0e2fb00f0f4fc0028fbd101230093b3
:1029cc0003ab01220e216944693000f0d5fb00f005
:1029dc00e7fc0028fbd103ab1b781b020d226a44d9
:1029ec001078184300b2c000fff796ff0022fc23ba
:0a29fc009b05fef751fd05b000bd7c
:020000040000fa
:102a060000b585b00f21694422230b70143b6b443b
:102a160021221a70012300930c336b44203a69205b
:102a260000f0adfb00f0bffc0028fbd101230093b2
:102a360003ab01220e216944693000f0a0fb00f0cf
:102a4600b2fc0028fbd103ab1b781b020d226a44a3
:102a56001078184300b2c000fff761ff0022fc2384
:0a2a66009b05fef71cfd05b000bd46
:020000040000fa
:102a700000b585b00f21694424230b70163b6b44cd
:102a800023221a70012300930c336b44223a6920ed
:102a900000f078fb00f08afc0028fbd101230093b2
:102aa00003ab01220e216944693000f06bfb00f09a
:102ab0007dfc0028fbd103ab1b781b020d226a446e
:102ac0001078184300b2c000fff72cff0022fc234f
:0a2ad0009b05fef7e7fc05b000bd12
:020000040000fa
:022ada00704743
:020000040000fa
:102adc00836913b50400002b28d18364c364036598
:102aec00134b144a1b6882620193984201d1012353
:102afc0083612000fff7d2fe60602000fff7cefe5e
:102b0c00a0602000fff7cafe0022e060042160688c
:102b1c0000f04efa01220921a06800f049fa0222c5
:102b2c001221e06800f044fa0123a36113bdc046f2
:082b3c000436000075350000ad
:020000040000fa
:102b4400144b01221a601a00d369002bfcd1114bdb
:102b5400802252005a601a00d369002bfcd10d4b1d
:102b64000122da600c4a1a601a00d369002bfcd1e6
:102b7400084b10225a831a00d369002bfcd1074b4f
:102b8400002221215a5401395a54024b83329a7536
:102b94007047c046000400421600100024010020c3
:020000040000fa
:102ba400f8b504000d00fef7c3ff134b06001b78b5
:102bb4000f005bb201331bd022002b002000290040
:102bc40000f032fb002813d100220023200029004a
:102bd400fff740fe00280bd000f0e6fc2123002282
:102be4000360002310001900fef77ef906000f00b1
:0c2bf40030003900f8bdc046110200207e
:020000040000fa
:102c000010b50d4a00215160916011730b480c4bb7
:102c100058630c4c9c630c4c5c613f2419550b4968
:102c200059640b490180012111704d2202319954e0
:102c3000084a1a8010bdc046f0010020e0010020c3
:102c400000600041d0010020818181810005800069
:082c500009040000020f00005e
:020000040000fa
:102c580070b504000d000020002c21d000f04afbc4
:102c6800002d18d000200f4a0421072605e0138df7
:102c780023800234013085420ed0137e0b42fcd0f3
:102c8800538b334208d153683340012befd0138d57
:102c980023700134eee72800281a45426841c0b283
:082ca80070bdc04600080042a7
:020000040000fa
:102cb0000b6970b505000c00002b01d1002070bd20
:102cc000002804d08369002b01d1fff707ff0b4bcd
:102cd0009c4209d16c680c22a35e002beed021002f
:102ce0002800fff7b9f9eae7054b9c4201d1ac682f
:102cf000f1e7044b9c42eed1ec68ece77001002058
:082d00009001002050010020a9
:020000040000fa
:102d080010b5114b00229a61da61104b83321a76a2
:102d18005a680f4c22405a601a00d369002bfcd124
:102d280000290cd0084a20330324d4544000084317
:102d3800064b58621a00d369002bfcd110bd024a19
:102d480020230424d454f1e7240100200004004285
:042d5800fffffbff7f
:020000040000fa
:102d5c0000b585b00e21694450230b704f3b009396
:102d6c000e336b440122692000f006fa00f018fbc8
:102d7c000028fbd10f226a44117810230b40262126
:102d8c000b43137003a90e226a4412780a704b701d
:102d9c000222693000f07afa00f002fb0028fbd125
:042dac0005b000bdb1
:020000040000fa
:102db000bff35f8f62b6104bc02080001a5812021a
:102dc000120ac02109060a431a5008221a60043068
:102dd0001a581202120a0a431a5080221a6004304a
:102de0001a5806491140c02212020a431a50802282
:102df00092001a607047c04600e100e0ff00ffff4c
:020000040000fa
:102e000070b50e001d000e23c95e90b0140000299d
:102e100007da00232b60b3891b0611d48023db0063
:102e20000fe001aa00f04afb0028f2dbf022029b2f
:102e300012021340054a9b185a4253412b60ede79a
:102e400040230020236010b070bdc04600e0ffffab
:020000040000fa
:102e500010b5104b06225a600f4c236858680021a9
:102e600000f076fb23689868002100f071fb00f009
:102e7000f9f9fff73bfb00f08dfb00f09ff9fff73e
:102e80002cfefff75ffefff7bbfefff711fcfff71d
:0c2e90008fff10bd004000410002002038
:020000040000fa
:102e9c0010b5064c2378002b07d1054b002b02d024
:102eac00044800e000bf0123237010bdb0010020d6
:102ebc000000000000000000044b10b5002b03d0f4
:102ecc000349044800e000bf10bdc04600000000ec
:082edc00b40100200000000019
:020000040000fa
:102ee400f0b5c64600b50e4d00240e4f012398469a
:102ef40004e07e6101340c35102c0ed02a7ae3b242
:102f04009a42f7d17b694646a6401e42f2d02b680e
:102f1400002beed068689847ebe704bc9046f0bd00
:082f2400040000200028004019
:020000040000fa
:102f2c0010b50a4b98470a4b9847fff773fb094bb0
:102f3c00ff229343084a9360084b9847084b9847e5
:102f4c00084b9847fff70cf9fee7c0460f36000018
:102f5c000f3600000000000000ed00e0752f0000af
:082f6c000f3600000f360000d3
:020000040000fa
:102f740070b500260c4d0d4c641ba410a64209d15b
:102f84000026fdf791f80a4d0a4c641ba410a642d2
:102f940005d170bdb300eb5898470136eee7b30096
:102fa400eb5898470136f2e7b8000000b80000007b
:082fb400b8000000bc000000a1
:020000040000fa
:102fbc00002310b5040003604360836081810366c5
:102fcc00c28103614361836119000822583000f00b
:102fdc00d3fa054b24626362044ba362044be36295
:102fec00044b236310bdc046d5330000f5310000ff
:082ffc0055330000b935000057
:020000040000fa
:1030040030b5002818d0002918d00d4a012407250e
:1030140004e003881385023000290bd00139137ea4
:103024002342fcd053682b40012bf2d00378138544
:103034000130f1e7012030bd0020fce70120fae770
:04304400000800423e
:020000040000fa
:10304800f7b504000700002601914834002c01d18f
:103058003000febd6368a5680093009b013b0093a8
:1030680001d52468f2e7ab89012b08d90e22ab5ea3
:10307800013304d029003800019b98470643643582
:02308800ebe774
:020000040000fa
:02308a00fee75f
:020000040000fa
:10308c00cc1600006c1500006c15000068150000d3
:10309c0072150000721500008816000068150000fb
:1030ac0072150000881600007215000068150000eb
:1030bc00841600008416000084160000961600008a
:1030cc005411000030100000fa0f00009e0f000099
:1030dc00fa0f0000fc100000fa0f00009e0f000019
:1030ec003010000030100000fc1000009e0f00009b
:1030fc00a60f0000a60f0000a60f00000a1100008a
:020000040000fa
:10310c001c2101231b04984201d3000c10391b0a0b
:10311c00984201d3000a08391b09984201d30009cf
:10312c00043902a2105c40187047c0460403020226
:0c313c0001010101000000000000000083
:020000040000fa
:1031480070b50c1e0ed0002a0cd01500022801d92b
:10315800280070bd084b002b06d01100200000e0ad
:1031680000bff5e70025f3e78e182078013400f05a
:0c317800c0f9b442f9d1ebe70000000000
:020000040000fa
:1031840070b50c4d20242d5d0024002d01d02000ad
:1031940070bd084ca080e360049b6361a160226160
:1031a4000023a37023702122a3540021fff7aafd5a
:0831b4000124ece724010020d6
:020000040000fa
:1031bc000a4b0b4a1a600b4a9a81c02292025a603f
:1031cc001a00d369002bfcd1044a136802210b436b
:1031dc001360d369002bfcd17047c0460008004235
:0831ec0004010040b66200007e
:020000040000fa
:1031f400f8b51f008b8905000c001600db0505d50a
:103204000e23c95e0022022300f00af9a389054aad
:1032140028001340a38132000e23e15e3b0000f03e
:08322400ebf8f8bdffefffff1e
:020000040000fa
:10322c0070b50c4e0d031c0349005b002d0b490db2
:10323c00240b5b0db14208d0064900208b4203d110
:10324c0014432000441ea04170bd05430120002df5
:08325c00fad1f1e7ff070000c1
:020000040000fa
:103264008223db05c02252051a60012240215a54f0
:1032740001315a5407315a5401315a54013212312e
:103284005a5401315a542e3229399954043211397d
:043294009954704792
:020000040000fa
:1032980010b50b4c2023e45c0023002c01d018004f
:1032a80010bd074b9880dc605c6199601a619c7066
:1032b8001c7021229c540021fff722fd0123eee718
:0432c80024010020bd
:020000040000fa
:1032cc00084a1368002b09d007491818884202d8fd
:1032dc0010601800704701235b42fae7034b136040
:1032ec00f2e7c0460c02002018040020180200204f
:020000040000fa
:1032fc00094b5b8b5b070dd0074b80221a76793a12
:10330c005a831b7e5b0705d5034b04211a8d1a7e4d
:0c331c000a42fbd17047c0460008004286
:020000040000fa
:1033280070b564254a1e55430e0029007031fff719
:103338007bf8041e08d000212a00016046600c308a
:0c334800a060643200f01af9200070bd93
:020000040000fa
:1033540070b50c000e25495f00f062f8a389421c89
:1033640003d1054a1340a38170bd80225201134347
:0c337400a3816065f8e7c046ffefffff93
:020000040000fa
:1033800070b500290fd0002a0dd01500002808d1f3
:103390000c008e18012000f0a3f820700134b44214
:0c33a000f8d1280070bd0025fbe7c046f6
:020000040000fa
:1033ac00074a2023d35c0120002b07d1054b588bf7
:1033bc00302318401038431e9841c0b27047c046a5
:0833cc0024010020000400426e
:020000040000fa
:1033d40070b50c000e25495f00f036f8002803dbb9
:1033e400636d1b18636570bda389024a1340a381f2
:0833f400f9e7c046ffefffffff
:020000040000fa
:1033fc0070b50500080011000022064c22601a006e
:10340c0000f0f0f8431c03d12368002b00d02b6094
:08341c0070bdc0460000002055
:020000040000fa
:1034240070b50500080011000022064c22601a0045
:1034340000f0d4f8431c03d12368002b00d02b6088
:0834440070bdc046000000202d
:020000040000fa
:10344c0070b50500080011000022064c22601a001d
:10345c0000f0c4f8431c03d12368002b00d02b6070
:08346c0070bdc0460000002005
:020000040000fa
:10347400002370b5064c050008002360fff724ff05
:10348400431c03d12368002b00d02b6070bdc046c1
:043494000000002014
:020000040000fa
:10349800002370b5064c05000800236000f094f87e
:1034a800431c03d12368002b00d02b6070bdc0469d
:0434b80000000020f0
:020000040000fa
:1034bc00002370b5064c050008001100236000f0d5
:1034cc0085f8431c03d12368002b00d02b6070bd02
:0434dc0000000020cc
:020000040000fa
:1034e00000b583b000230193012101a8fff7b4fbcd
:0a34f0000028f9d0019803b000bdd8
:020000040000fa
:1034fa0000b583b06b46d87101216b46d81dfff722
:0a350a007cfd0028f8d003b000bdde
:020000040000fa
:10351400012800d07047024b01221a70fae7c04616
:043524001002002071
:020000040000fa
:1035280025642e003000000025640a0d000000000c
:043538004e1fc0461c
:020000040000fa
:10353c0010b5034b01001868fef774ff10bdc046b0
:04354c000002002059
:020000040000fa
:103550004a424a41802310b55200db00fef79efb31
:0235600010bd9c
:020000040000fa
:02356200fee782
:020000040000fa
:1035640003010248c018416082607047f0010020e6
:020000040000fa
:1035740010b50249fff766fd10bdc046b12c00002e
:020000040000fa
:1035840003001218934200d1704719700133f9e710
:020000040000fa
:0c359400014b80225a607047004000414b
:020000040000fa
:0c35a00003695a40114059400161704716
:020000040000fa
:0c35ac00014b18687047c0460002002068
:020000040000fa
:0c35b80010b50e23c95efff76bff10bdbd
:020000040000fa
:0c35c40080239b0100204b607047c04634
:020000040000fa
:0835d00010b500f011f810bd68
:020000040000fa
:0835d80010b5fff7f3ff10bd71
:020000040000fa
:0835e00010b500f011f810bd58
:020000040000fa
:0835e80010b5fff7c9fe10bd8c
:020000040000fa
:0835f00010b5fff7a9fd10bda5
:020000040000fa
:0835f800012040427047c0466b
:020000040000fa
:043600007047c04609
:020000040000fa
:04360400c4000020de
:020000040000fa
:0436080000207047e7
:020000040000fa
:02360c00fee7d7
:020000040000fa
:02360e00704703
:020000040000fa
:02361000704701
:020000040000fa
:023612007047ff
:020000040000fa
:0200000400807a
:04400000ff00fe03bc
:020000040000fa
:0200000400807a
:0440040000fcffffbe
:00000001FF
